{
  "address": "0xb24a87c1DFb8523e5Ef4Bda694Bb466285049192",
  "abi": [
    {
      "inputs": [
        {
          "internalType": "uint256[2]",
          "name": "_pA",
          "type": "uint256[2]"
        },
        {
          "internalType": "uint256[2][2]",
          "name": "_pB",
          "type": "uint256[2][2]"
        },
        {
          "internalType": "uint256[2]",
          "name": "_pC",
          "type": "uint256[2]"
        },
        {
          "internalType": "uint256[38]",
          "name": "_pubSignals",
          "type": "uint256[38]"
        }
      ],
      "name": "verifyProof",
      "outputs": [
        {
          "internalType": "bool",
          "name": "",
          "type": "bool"
        }
      ],
      "stateMutability": "view",
      "type": "function"
    }
  ],
  "transactionHash": "0x597923535bc4f7b877a0ddd2ac9a96b7c8eff0924de6cd5df9d93b10c38d112b",
  "args": [],
  "numDeployments": 1,
  "solcInputHash": "750808027def1a686c3c4942b9a7ffe0",
  "bytecode": "0x6080806040523461001657611bed908161001c8239f35b600080fdfe6080604052600436101561001257600080fd5b6000803560e01c63831e4ae01461002857600080fd5b34610250576105c03660031901126102505761004336610253565b3660c41161024c5761005436610265565b906105c436811161024857916102449161023f6020959461040060405261007d61010435610273565b61008961012435610273565b61009561014435610273565b6100a161016435610273565b6100ad61018435610273565b6100b96101a435610273565b6100c56101c435610273565b6100d16101e435610273565b6100dd61020435610273565b6100e961022435610273565b6100f561024435610273565b61010161026435610273565b61010d61028435610273565b6101196102a435610273565b6101256102c435610273565b6101316102e435610273565b61013d61030435610273565b61014961032435610273565b61015561034435610273565b61016161036435610273565b61016d61038435610273565b6101796103a435610273565b6101856103c435610273565b6101916103e435610273565b61019d61040435610273565b6101a961042435610273565b6101b561044435610273565b6101c161046435610273565b6101cd61048435610273565b6101d96104a435610273565b6101e56104c435610273565b6101f16104e435610273565b6101fd61050435610273565b61020961052435610273565b61021561054435610273565b61022161056435610273565b61022d61058435610273565b6102396105a435610273565b35610273565b61171f565b8152f35b8380fd5b5080fd5b80fd5b9060049160441161026057565b600080fd5b9060c4916101041161026057565b7f30644e72e131a029b85045b68181585d97816a916871ca8d3c208c16d87cfd47111561029c57565b6000805260206000f35b604051907f08c033375f7b9b4d4d21ab61cf95398b85ceab592496fac5e0278c847e67427682527f2cb53751205cf78a9cf5e100f215c610367178554c581286e82ce6894d769ee16020830152604082019081526107cf196040836060816007855a01fa1561029c5760409260066080939284938451905260a05160608401525a01fa1561029c57565b604051907f01fd7cd23534b84d17783c31e441aa2eb95a050b9127e37a9f5587a1751f71eb82527f052490713e636a97e1fb031b2d3384c4ab2d6f6ed3ac9f459fac2d2ba4a1b2e06020830152604082019081526107cf196040836060816007855a01fa1561029c5760409260066080939284938451905260a05160608401525a01fa1561029c57565b604051907f0b228257ad0859000e38bdf38ff787e6b829b3cd0040ab92164d6171f3b085ea82527f256616621649a845cb66babd1f676ba44d689e683eb7eb53374e48b8e4c409b16020830152604082019081526107cf196040836060816007855a01fa1561029c5760409260066080939284938451905260a05160608401525a01fa1561029c57565b604051907f2979d724649fc184f1091abdedb64ea58401b0c0e54e9480a1c2ef5601c087e082527f186e961f4c05f1671f7994e4500382eefc07ea1ddc6a5a1a60f6ee347c7be0576020830152604082019081526107cf196040836060816007855a01fa1561029c5760409260066080939284938451905260a05160608401525a01fa1561029c57565b604051907f1fd8ffd81e555806ffdc9e0f034c1373ae012499e7e67d5edc01582790d4099382527f27081b7a953c3790bf751674a50a23821e7f3841d7b0418e61b5277d6aaa7ccc6020830152604082019081526107cf196040836060816007855a01fa1561029c5760409260066080939284938451905260a05160608401525a01fa1561029c57565b604051907f13498910321d23ea90b409e45e90c40e837c70eeffd5ca85a02eccbceade6b5382527f0e82363237a4dc55526e001eb1d695c3e9039986e9a2373455ba4b570acc72646020830152604082019081526107cf196040836060816007855a01fa1561029c5760409260066080939284938451905260a05160608401525a01fa1561029c57565b604051907f203a8f7d111ad941e485f2692c256680b752edc3cd8ccd92e620cf17ff3534d282527f2e2315c45313e02591ba43319399b74bedd9ced2793f602f6b22eafe003f8b4a6020830152604082019081526107cf196040836060816007855a01fa1561029c5760409260066080939284938451905260a05160608401525a01fa1561029c57565b604051907f21564b1e9db2b247e0921254e9f0f75e3fcbe2d1d30a202b2be65e4b18a152e082527f1e86fb929660fdaa69f10be5714651ed0de3dfd49f06238334f937d9d3e2733f6020830152604082019081526107cf196040836060816007855a01fa1561029c5760409260066080939284938451905260a05160608401525a01fa1561029c57565b604051907f1a71bfa4c37985b56863021a5c26e1a561cdd4cfa2f1aa9327f632b4670f524282527f016ec5dcb66e609a8d89e711444d32e586f662354e41084e2888ebb97f5b67226020830152604082019081526107cf196040836060816007855a01fa1561029c5760409260066080939284938451905260a05160608401525a01fa1561029c57565b604051907f15e1f2d6b38cae9960aceae8d832067aac43565737b79c4875b6dd7a67d4bfc982527f1831182339eb45624402af0e2887a9a93b33abc52c8d50096aca373449396cd66020830152604082019081526107cf196040836060816007855a01fa1561029c5760409260066080939284938451905260a05160608401525a01fa1561029c57565b604051907f3020cdde5eb7df9c7afd526edb333a11dcdb1f271e3e7d31dac1ad0ddc7b755382527f05dd559259952daad5ad52f86970c2fa050974d317cc2ad04dd58f59ecbc7e786020830152604082019081526107cf196040836060816007855a01fa1561029c5760409260066080939284938451905260a05160608401525a01fa1561029c57565b604051907f176401669c60e015427c97b4f4e756e9b12a249fbc767240a1b95b6e90339af882527f1f63433f4731866908a7fdd84e9a6a9cc5584c8e9a6c9541183c17e018660f016020830152604082019081526107cf196040836060816007855a01fa1561029c5760409260066080939284938451905260a05160608401525a01fa1561029c57565b604051907f266d92bb0c7cf54c13320ec43b304aae7c1e68ab8c633f6bc079beca7b83b8a882527f1becf90ef08f14887607386cf5c4ae46eac76cc93f9b28e3dc6720f2a8636f726020830152604082019081526107cf196040836060816007855a01fa1561029c5760409260066080939284938451905260a05160608401525a01fa1561029c57565b604051907f1ecef5129f49f6c4f70856db2437c3342d840ef55e7f674431b39235bb32a2e582527f0f16bca08d7672c2c6a70b097f780d92cb6abe71231530ab38be47ec4bb9f0656020830152604082019081526107cf196040836060816007855a01fa1561029c5760409260066080939284938451905260a05160608401525a01fa1561029c57565b604051907f0f8bf7735da92118f10b840163fc142a2f8c35c5daf732d0375f30ec021c382282527f0e57ec4267b4df8c79888d886080dddd7330233a9ea5489dbe03a388741adc656020830152604082019081526107cf196040836060816007855a01fa1561029c5760409260066080939284938451905260a05160608401525a01fa1561029c57565b604051907e128ae85c76fbc1214b05cc94acb1a72e3f1fc009250a9a7c3eb907e1aaab4a82527f25d3c509d8f46e27ef324e20dad1befe8f5ef4c5698065d8b2ec025b80a4bdb96020830152604082019081526107cf196040836060816007855a01fa1561029c5760409260066080939284938451905260a05160608401525a01fa1561029c57565b604051907f0b61bd21284bfb3849df98447bba37fd83979043923df5a5a1e2313f6c934fe782527f27529cf8c93cd529763ffa29d7b1b0bb845b2e4ee836bfa6fdc2a3f295a2a2a46020830152604082019081526107cf196040836060816007855a01fa1561029c5760409260066080939284938451905260a05160608401525a01fa1561029c57565b604051907f2a4c8d4ce173db6c3151ff95771e5bc600454ba8d8e77d73d691d3b788f1547c82527f1d0690e56fd4ebdbeddc2c36d146a581f1bada3459fc0d22e6cf3a879d8e0bb26020830152604082019081526107cf196040836060816007855a01fa1561029c5760409260066080939284938451905260a05160608401525a01fa1561029c57565b604051907f1f91c262234db447c7a42e2ac865dfc25173698c81f7150c1fc6e3f52152517482527f2197d9057bcd8512d8bd10d708f9b9b983e30aa4206d0d298b1bfdb22c03af0d6020830152604082019081526107cf196040836060816007855a01fa1561029c5760409260066080939284938451905260a05160608401525a01fa1561029c57565b604051907f160261b562bb1c2e1adfbe16213ab10f1d65a9af797ff9fdf33cbaffdd8ff14a82527f0ccf58b5f8b38c4fb71107eb3141fd4cd8835c1ac98ce069d17f483fda4902136020830152604082019081526107cf196040836060816007855a01fa1561029c5760409260066080939284938451905260a05160608401525a01fa1561029c57565b604051907f06d6cb60a85a184ed8560777b4d6ea19d81cb7a5c1f2dc6a485edc4ceb40a26082527f06070cd76564f60c5cd3189dfd49e1aed642613d7d2361e1a8e522fa39e2139b6020830152604082019081526107cf196040836060816007855a01fa1561029c5760409260066080939284938451905260a05160608401525a01fa1561029c57565b604051907f0baae891783d92c0d64d955d136cbcebb2e38ae09dbfde150feee3c0b882a86582527f2fc55313fc9e16e0dda7103536e846ee999347ed86ad019229f031a19ed4634c6020830152604082019081526107cf196040836060816007855a01fa1561029c5760409260066080939284938451905260a05160608401525a01fa1561029c57565b604051907f065f3215077f26963b7171c9ff320db50fde64fb3dd2992595c11981b0bda98b82527f1d7c06c0d99ac359b5ef4753b1bf87d1a8fcffe2ce8cc05e92f39f1d027f43a46020830152604082019081526107cf196040836060816007855a01fa1561029c5760409260066080939284938451905260a05160608401525a01fa1561029c57565b604051907f2484e7bd73447c5f7ce18f9df35f68977544ba54ba13a30555bbc0c11a8a427a82527f06fead1c35303d414ab4af9fda1e1fd929ef117d2cb5da0efc04f42bc9c6f0bb6020830152604082019081526107cf196040836060816007855a01fa1561029c5760409260066080939284938451905260a05160608401525a01fa1561029c57565b604051907f2f68633a8f3f177d4be86b9e27b768b50cce1a9e304d44055081d1cf878c922d82527f1a2f48b9b4d7d54e7533ecce0c24385e6a2a65a9f073da49b169aa83444a2c786020830152604082019081526107cf196040836060816007855a01fa1561029c5760409260066080939284938451905260a05160608401525a01fa1561029c57565b604051907f13ec3d5bd56285ef6ad6950716731c0347193d8cadd2b24f33b0bc49ea8b002782527f2a74eb84308bc8b3e745cb7869a3301e4f7c6376639d186606ff9a27bad8cbd06020830152604082019081526107cf196040836060816007855a01fa1561029c5760409260066080939284938451905260a05160608401525a01fa1561029c57565b604051907f1b27af4b6e4052e4c2820aa710903fc054cc14f34e5515d98f9db79108e7197e82527f04a3a7a4b18f2e65b78613d067c00fc8e083e60aa927d230047343e15570c1646020830152604082019081526107cf196040836060816007855a01fa1561029c5760409260066080939284938451905260a05160608401525a01fa1561029c57565b604051907f0466b278eb0e5e3a1117c981ee45eaa3fc9b99a65422bafc1ab3b2d35b25cb1782527f0a6a46ce4ff2fd7ec6b6bff4233f44cac59f12e27b2964aa4804a67b9cc179346020830152604082019081526107cf196040836060816007855a01fa1561029c5760409260066080939284938451905260a05160608401525a01fa1561029c57565b604051907f2d02b829f9fcf0d926ff84f19acd70edd1e3cebcb3d8992d08bb9abf65cc0b5a82527f2a0a97c04405a1f7fef7a27e4055bffc61bfa9213790043f44a58c97808466cd6020830152604082019081526107cf196040836060816007855a01fa1561029c5760409260066080939284938451905260a05160608401525a01fa1561029c57565b604051907f2e2acca1c520dbc0c6669c66d83c51d43ff7623e6e47e8b682b4b53c27fbee5482527f199dc24b47a01774b2ca14c6ebb1d6dbefd68f2910cea07a6f52a39a51e821b36020830152604082019081526107cf196040836060816007855a01fa1561029c5760409260066080939284938451905260a05160608401525a01fa1561029c57565b604051907f15d021f30dff2805c0c2699359e2c1e1fd31ccaf156d2d38bbc1e1e2b42d91f182527f10d9be99903ae31c2e662af507aeac7734dea024cdfca7d206aa20a47b893e706020830152604082019081526107cf196040836060816007855a01fa1561029c5760409260066080939284938451905260a05160608401525a01fa1561029c57565b604051907f1f03120f3f56b9035896158416bc21b1b55938ca68811e0713ab85d2feee2b3e82527f182f3ab3a4ff98f3885bd016f76eeec476ba1b76c323b1653ef6b80768a5a16b6020830152604082019081526107cf196040836060816007855a01fa1561029c5760409260066080939284938451905260a05160608401525a01fa1561029c57565b604051907f1218fcad9b211671bc8484d52d665df07d2a87fdce5e2df8c05c643a627a532182527f0f86d0b5c22dce1b3919696027d8a6e866726b44893e19cf1384544d66758f6b6020830152604082019081526107cf196040836060816007855a01fa1561029c5760409260066080939284938451905260a05160608401525a01fa1561029c57565b604051907f19abd3b165a28e010c686149f039ea919508d9373aca3096fe6fee3e63717a6e82527f29feae1b5b40d3a967d3696b9503cececda9980a7a0b51e3386778862673abd66020830152604082019081526107cf196040836060816007855a01fa1561029c5760409260066080939284938451905260a05160608401525a01fa1561029c57565b604051907e7169c644575f01b354a6f7633c7be48066117f6add439b6f745525017ac9c582527f2c3c0a78a37f4cd21f164ffd0133f5d4cb2c0ad3ca4ce260a04930dac48cc5206020830152604082019081526107cf196040836060816007855a01fa1561029c5760409260066080939284938451905260a05160608401525a01fa1561029c57565b604051907eb9e02b1890acc5f73ac202170eeb3d99ab5d849179db2a443e20d5d71cfeb082527f0b793cba68e2710afcdb131342860cea217a60ab74f3f49bcf10bbf9ad78533b6020830152604082019081526107cf196040836060816007855a01fa1561029c5760409260066080939284938451905260a05160608401525a01fa1561029c57565b604051907f0d4adb8a04cae83cb1cd6867a50b8bb4e6f506b4f76de88d66188a2caeee25fb82527f06f371ff234dbbe385a7b198ec02fe2c3114696d09a9baacb27c91f2bedd20ae6020830152604082019081526107cf196040836060816007855a01fa1561029c5760409260066080939284938451905260a05160608401525a01fa1561029c57565b604051907f0e38eb2cc3fd05d81d7991331e43a9cb3a39825b841d3abe9fbba1d50269445482527f2274d3006c7891d6ffa5005462d890c9a3f06c2740684f17d98f4fc749dc04de6020830152604082019081526107cf196040836060816007855a01fa1561029c5760409260066080939284938451905260a05160608401525a01fa1561029c57565b6020907f0f9006886f6f20ff507615a18b97e3c01a4014043c38b27cde5a7cdf7dab0d7f6080527f1e92b1b255ac9824dd1ee75e42c910e057e6dd572de9aad0494189943d373eb160a052611776610104356102a6565b61178261012435610330565b61178e610144356103ba565b61179a61016435610444565b6117a6610184356104ce565b6117b26101a435610558565b6117be6101c4356105e2565b6117ca6101e43561066c565b6117d6610204356106f6565b6117e261022435610780565b6117ee6102443561080a565b6117fa61026435610894565b6118066102843561091e565b6118126102a4356109a8565b61181e6102c435610a32565b61182a6102e435610abc565b61183661030435610b45565b61184261032435610bcf565b61184e61034435610c59565b61185a61036435610ce3565b61186661038435610d6d565b6118726103a435610df7565b61187e6103c435610e81565b61188a6103e435610f0b565b61189661040435610f95565b6118a26104243561101f565b6118ae610444356110a9565b6118ba61046435611133565b6118c6610484356111bd565b6118d26104a435611247565b6118de6104c4356112d1565b6118ea6104e43561135b565b6118f6610504356113e5565b6119026105243561146f565b61190e610544356114f9565b61191a61056435611582565b6119266105843561160b565b6119326105a435611695565b61010092818492358352837f30644e72e131a029b85045b68181585d97816a916871ca8d3c208c16d87cfd479101358103066101205260443561014052606435610160526084356101805260a4356101a0527f2d4d9aa7e302d9df41749d5507949d05dbea33fbb16c643b22f599a2be6df2e26101c0527f14bedd503c37ceb061d8ec60209fe345ce89830a19230301f076caff004d19266101e0527f0967032fcbf776d1afc985f88877f182d38480a653f2decaa9794cbc3bf3060c610200527f0e187847ad4c798374d0d6732bf501847dd68bc0e071241e0213bc7fc13db7ab610220527f304cfbd1e08a704a99f5e847d93f8c3caafddec46b7a0d379da69a4d112346a7610240527f1739c1b1a457a8c7313123d24d2f9192f896b7c63eea05a9d57f06547ad0cec8610260526080516102805260a0516102a0527f198e9393920d483a7260bfb731fb5d25f1aa493335a9e71297e485b7aef312c26102c0527f1800deef121f1e76426a00665e5c4479674322d4f75edadd46debd5cd992f6ed6102e05282610300917f090689d0585ff075ec9e99ad690c3395bc4b313370b38ef355acdadcd122975b83527f12c85ea5db8c6deb4aab71808dcb408fe3d1e7690c43d37b4ce6cc0166fa7daa610320528035610340520135610360527f0a99859aa8393a5eca66946b5015eaa847991f8bc375aa6cf49fa75656c614a6610380527f040455d90d2400b3bccf9ce7dcf376258d8a89bfef69a359795ee559e971cb436103a0527f0aa97e6e93aadcbb21d5b5e193976fc8edea5b4e5400d438ee722ce8b12416bf6103c0527f1df147cf091a2b6e12bec09ea95cf9d90d8684d8c987b3041b6c08724a262ad26103e0528160086107cf195a01fa9051169056fea26469706673582212203e72178860b78cd2b054d1febb407bbc00522bb0d1b434aa31ec7633db0fec3164736f6c63430008140033",
  "devdoc": {
    "kind": "dev",
    "methods": {},
    "version": 1
  },
  "userdoc": {
    "kind": "user",
    "methods": {},
    "version": 1
  },
  "storageLayout": {
    "storage": [],
    "types": null
  }
}