{
  "address": "0x1a9120ca35be0D96575fc03233417EfC6C441977",
  "abi": [
    {
      "inputs": [
        {
          "internalType": "uint256",
          "name": "_validEventId",
          "type": "uint256"
        },
        {
          "internalType": "uint256",
          "name": "_validSigner1",
          "type": "uint256"
        },
        {
          "internalType": "uint256",
          "name": "_validSigner2",
          "type": "uint256"
        },
        {
          "internalType": "address",
          "name": "_verifier",
          "type": "address"
        }
      ],
      "stateMutability": "payable",
      "type": "constructor"
    },
    {
      "inputs": [],
      "name": "AlreadyRegistered",
      "type": "error"
    },
    {
      "inputs": [],
      "name": "InvalidEventId",
      "type": "error"
    },
    {
      "inputs": [],
      "name": "InvalidProof",
      "type": "error"
    },
    {
      "inputs": [],
      "name": "InvalidSigners",
      "type": "error"
    },
    {
      "inputs": [],
      "name": "InvalidWatermark",
      "type": "error"
    },
    {
      "inputs": [],
      "name": "OnlyMACI",
      "type": "error"
    },
    {
      "inputs": [
        {
          "internalType": "address",
          "name": "owner",
          "type": "address"
        }
      ],
      "name": "OwnableInvalidOwner",
      "type": "error"
    },
    {
      "inputs": [
        {
          "internalType": "address",
          "name": "account",
          "type": "address"
        }
      ],
      "name": "OwnableUnauthorizedAccount",
      "type": "error"
    },
    {
      "anonymous": false,
      "inputs": [
        {
          "indexed": true,
          "internalType": "address",
          "name": "previousOwner",
          "type": "address"
        },
        {
          "indexed": true,
          "internalType": "address",
          "name": "newOwner",
          "type": "address"
        }
      ],
      "name": "OwnershipTransferred",
      "type": "event"
    },
    {
      "inputs": [],
      "name": "maci",
      "outputs": [
        {
          "internalType": "address",
          "name": "",
          "type": "address"
        }
      ],
      "stateMutability": "view",
      "type": "function"
    },
    {
      "inputs": [],
      "name": "owner",
      "outputs": [
        {
          "internalType": "address",
          "name": "",
          "type": "address"
        }
      ],
      "stateMutability": "view",
      "type": "function"
    },
    {
      "inputs": [
        {
          "internalType": "address",
          "name": "_user",
          "type": "address"
        },
        {
          "internalType": "bytes",
          "name": "_data",
          "type": "bytes"
        }
      ],
      "name": "register",
      "outputs": [],
      "stateMutability": "nonpayable",
      "type": "function"
    },
    {
      "inputs": [
        {
          "internalType": "uint256",
          "name": "",
          "type": "uint256"
        }
      ],
      "name": "registeredTickets",
      "outputs": [
        {
          "internalType": "bool",
          "name": "",
          "type": "bool"
        }
      ],
      "stateMutability": "view",
      "type": "function"
    },
    {
      "inputs": [],
      "name": "renounceOwnership",
      "outputs": [],
      "stateMutability": "nonpayable",
      "type": "function"
    },
    {
      "inputs": [
        {
          "internalType": "address",
          "name": "_maci",
          "type": "address"
        }
      ],
      "name": "setMaciInstance",
      "outputs": [],
      "stateMutability": "nonpayable",
      "type": "function"
    },
    {
      "inputs": [
        {
          "internalType": "address",
          "name": "newOwner",
          "type": "address"
        }
      ],
      "name": "transferOwnership",
      "outputs": [],
      "stateMutability": "nonpayable",
      "type": "function"
    }
  ],
  "transactionHash": "0x78ded7bcfae667ccb252b287a44719682256444892375f03f28afb22fe46cc27",
  "args": [
    "111560146890584288369567824893314450802",
    "13908133709081944902758389525983124100292637002438232157513257158004852609027",
    "7654374482676219729919246464135900991450848628968334062174564799457623790084",
    "0xb24a87c1DFb8523e5Ef4Bda694Bb466285049192"
  ],
  "numDeployments": 1,
  "solcInputHash": "750808027def1a686c3c4942b9a7ffe0",
  "bytecode": "0x610100601f61086538819003918201601f19168301916001600160401b03831184841017610101578084926080946040528339810103126100fc578051602082015160408301516060909301516001600160a01b0393848216939092918490036100fc5733156100e3576000543360018060a01b0319821617600055604051953391167f8be0079c531659141344cd1fd0a4f28419497f9722a3daafe3b4186f6b6457e0600080a360805260a05260c05260e05261074d90816101188239608051816103f8015260a05181610424015260c051816104be015260e051816103ba0152f35b604051631e4fbdf760e01b815260006004820152602490fd5b600080fd5b634e487b7160e01b600052604160045260246000fdfe6040608081526004908136101561001557600080fd5b600091823560e01c806313e65cf3146105ca57806324b8fbf6146101d557806334a0922c146101ac578063691c1a4214610180578063715018a6146101235780638da5cb5b146100f75763f2fde38b1461006e57600080fd5b346100f35760203660031901126100f35761008761060f565b9061009061067e565b6001600160a01b039182169283156100dd57505082546001600160a01b0319811683178455167f8be0079c531659141344cd1fd0a4f28419497f9722a3daafe3b4186f6b6457e08380a380f35b51631e4fbdf760e01b8152908101849052602490fd5b8280fd5b50503461011f578160031936011261011f57905490516001600160a01b039091168152602090f35b5080fd5b833461017d578060031936011261017d5761013c61067e565b80546001600160a01b03198116825581906001600160a01b03167f8be0079c531659141344cd1fd0a4f28419497f9722a3daafe3b4186f6b6457e08280a380f35b80fd5b50346100f35760203660031901126100f3578160209360ff923581526002855220541690519015158152f35b50503461011f578160031936011261011f5760015490516001600160a01b039091168152602090f35b50823461017d578260031936011261017d576101ef61060f565b916024359367ffffffffffffffff948581116105a457366023820112156105a45780830135938685116105b75782519060209561023587601f19601f840116018461065c565b8083528683019336602483830101116100f35781839260248a93018737840101526001805490986001600160a01b039691871633036105a85783518401946105c0858a88019703126105a4578561028b916106aa565b9885607f860112156105a4578651956102a38761062a565b60e086018782821161056d5782908a8d60608b01925b85841061058857505050506102cd916106aa565b958161013f82011215610584578851936104c085019081118582101761057157895283906105e0810192831161056d576101208c919b999b01915b83831061055d5750508851630418f25760e51b81529b61032d9250858d0191506106ef565b60448a01979584985b6002808b101561038457898e928d928b5182868c915b84831061036457505050505001980199019896610336565b879294965083959791935181520193019101908f949291868f959361034c565b50508b96508a61039b8b96999760c48301906106ef565b8389898861010485015b60268410610548575092505050816105c481857f0000000000000000000000000000000000000000000000000000000000000000165afa90811561053e578991610504575b50156104f4576101e08301517f0000000000000000000000000000000000000000000000000000000000000000036104e4576101a08301517f0000000000000000000000000000000000000000000000000000000000000000148015906104b5575b6104a5576104a08301519116036104965751908186526002835260ff848720541661048857508452600290528220805460ff1916909117905580f35b8351630ea075bf60e21b8152fd5b50825163055e490360e01b8152fd5b8551635e231fff60e01b81528490fd5b506101c08301517f0000000000000000000000000000000000000000000000000000000000000000141561044c565b8551630c93477d60e41b81528490fd5b85516309bde33960e01b81528490fd5b90508581813d8311610537575b61051b818361065c565b810103126105335751801515810361053357896103ea565b8880fd5b503d610511565b87513d8b823e3d90fd5b81908551815201930191019091888b916103a5565b82518152918101918c9101610308565b8680fd5b634e487b7160e01b875260418652602487fd5b8580fd5b9091929361059690856106aa565b81520191018a8d85936102b9565b8380fd5b508451630346d90560e21b8152fd5b634e487b7160e01b815260418452602490fd5b833461017d57602036600319011261017d576105e461060f565b6105ec61067e565b60018060a01b03166bffffffffffffffffffffffff60a01b600154161760015580f35b600435906001600160a01b038216820361062557565b600080fd5b6040810190811067ffffffffffffffff82111761064657604052565b634e487b7160e01b600052604160045260246000fd5b90601f8019910116810190811067ffffffffffffffff82111761064657604052565b6000546001600160a01b0316330361069257565b60405163118cdaa760e01b8152336004820152602490fd5b9080601f8301121561062557604051916106c38361062a565b82906040810192831161062557905b8282106106df5750505090565b81518152602091820191016106d2565b6000915b6002831061070057505050565b6001908251815260208091019201920191906106f356fea2646970667358221220eaa13118b03f0c16035e9f7084e26f76399b00d8fe6d3e1d81c8cb1d1f28e04164736f6c63430008140033",
  "devdoc": {
    "errors": {
      "OwnableInvalidOwner(address)": [
        {
          "details": "The owner is not a valid owner account. (eg. `address(0)`)"
        }
      ],
      "OwnableUnauthorizedAccount(address)": [
        {
          "details": "The caller account is not authorized to perform an operation."
        }
      ]
    },
    "kind": "dev",
    "methods": {
      "constructor": {
        "params": {
          "_validEventId": "Zupass event UUID converted to bigint",
          "_validSigner1": "Zupass event signer[0]",
          "_validSigner2": "Zupass event signer[1]"
        }
      },
      "owner()": {
        "details": "Returns the address of the current owner."
      },
      "register(address,bytes)": {
        "params": {
          "_data": "The ABI-encoded tokenId as a uint256.",
          "_user": "The user's Ethereum address."
        }
      },
      "renounceOwnership()": {
        "details": "Leaves the contract without owner. It will not be possible to call `onlyOwner` functions. Can only be called by the current owner. NOTE: Renouncing ownership will leave the contract without an owner, thereby disabling any functionality that is only available to the owner."
      },
      "setMaciInstance(address)": {
        "params": {
          "_maci": "The MACI contract interface to be stored"
        }
      },
      "transferOwnership(address)": {
        "details": "Transfers ownership of the contract to a new account (`newOwner`). Can only be called by the current owner."
      }
    },
    "title": "SignUpTokenGatekeeper",
    "version": 1
  },
  "userdoc": {
    "errors": {
      "AlreadyRegistered()": [
        {
          "notice": "custom errors"
        }
      ]
    },
    "kind": "user",
    "methods": {
      "constructor": {
        "notice": "creates a new ZupassGatekeeper"
      },
      "maci()": {
        "notice": "the reference to the MACI contract"
      },
      "register(address,bytes)": {
        "notice": "Registers the user if they own the token with the token ID encoded in _data. Throws if the user does not own the token or if the token has already been used to sign up."
      },
      "registeredTickets(uint256)": {
        "notice": "a mapping of ticket IDs to whether they have been used"
      },
      "setMaciInstance(address)": {
        "notice": "Adds an uninitialised MACI instance to allow for token signups"
      }
    },
    "notice": "This contract allows to gatekeep MACI signups by requiring new voters to own a certain ERC721 token",
    "version": 1
  },
  "storageLayout": {
    "storage": [
      {
        "astId": 8,
        "contract": "contracts/maci-contracts/gatekeepers/ZupassGatekeeper.sol:ZupassGatekeeper",
        "label": "_owner",
        "offset": 0,
        "slot": "0",
        "type": "t_address"
      },
      {
        "astId": 523,
        "contract": "contracts/maci-contracts/gatekeepers/ZupassGatekeeper.sol:ZupassGatekeeper",
        "label": "maci",
        "offset": 0,
        "slot": "1",
        "type": "t_address"
      },
      {
        "astId": 528,
        "contract": "contracts/maci-contracts/gatekeepers/ZupassGatekeeper.sol:ZupassGatekeeper",
        "label": "registeredTickets",
        "offset": 0,
        "slot": "2",
        "type": "t_mapping(t_uint256,t_bool)"
      }
    ],
    "types": {
      "t_address": {
        "encoding": "inplace",
        "label": "address",
        "numberOfBytes": "20"
      },
      "t_bool": {
        "encoding": "inplace",
        "label": "bool",
        "numberOfBytes": "1"
      },
      "t_mapping(t_uint256,t_bool)": {
        "encoding": "mapping",
        "key": "t_uint256",
        "label": "mapping(uint256 => bool)",
        "numberOfBytes": "32",
        "value": "t_bool"
      },
      "t_uint256": {
        "encoding": "inplace",
        "label": "uint256",
        "numberOfBytes": "32"
      }
    }
  }
}